:1000000071C00000A1C00000F6C000004BC100009C
:100010007BC0000079C0000077C0000075C0000000
:1000200073C0000071C000006FC000006DC0000010
:100030006BC0000069C0000067C0000065C0000020
:1000400063C0000061C000005FC000005DC0000030
:100050005BC0000059C0000057C0000055C0000040
:1000600053C0000051C000004FC000004DC0000050
:100070004BC0000049C0000047C0000045C0000060
:1000800043C0000041C000003FC000003DC0000070
:100090003BC0000039C0000037C0000035C0000080
:1000A00033C0000031C000002FC000002DC0000090
:1000B0002BC000002AC000000EC1000025C00000B7
:1000C00023C0000021C000001FC000001DC00000B0
:1000D0001BC0000019C0000017C0000015C00000C0
:1000E00013C0000011241FBECFEFD1E2DEBFCDBF91
:1000F00000E00CBF22E0A0E0B2E001C01D92AB30F6
:10010000B207E1F727D1FBC47BCF1F920F920FB646
:100110000F9211240BB60F928F93EF93FF93E1EAA6
:10012000F0E080818E7F80831092A5001092A40061
:1001300010920A02FF91EF918F910F900BBE0F90DA
:100140000FBE0F901F9018951F920F920FB60F922F
:1001500011240BB60F922F933F934F935F936F939E
:100160007F938F939F93AF93BF93CF93DF93EF933F
:10017000FF93489B06C0E1EAF0E0808181608083C4
:1001800025C0E1EAF0E080818E7F8083C4EAD0E080
:1001900028813981A7E5B1E08DD479D320E030E022
:1001A00040E85DE302D420E030E04AEF54E4DBD2E3
:1001B00020E030E040E05FE372D23DD3E0E0F2E0E7
:1001C000708361831982188210920A02FF91EF9165
:1001D000DF91CF91BF91AF919F918F917F916F915F
:1001E0005F914F913F912F910F900BBE0F900FBEDB
:1001F0000F901F9018951F920F920FB60F92112417
:100200000BB60F922F933F934F935F936F937F9310
:100210008F939F93AF93BF93CF93DF93EF93FF930E
:10022000499B06C0E1EAF0E080818160808325C0BF
:10023000E1EAF0E080818E7F8083C4EAD0E028810B
:100240003981A7E5B1E036D422D320E030E040E8A0
:100250005DE3ABD320E030E04AEF54E484D220E009
:1002600030E040E05FE31BD2E6D2E0E0F2E07283F0
:1002700063831982188210920A02FF91EF91DF9135
:10028000CF91BF91AF919F918F917F916F915F912E
:100290004F913F912F910F900BBE0F900FBE0F907B
:1002A0001F9018951F920F920FB60F9211240BB644
:1002B0000F928F93EF93FF93E1E2F1E080818C7FC7
:1002C0008083FF91EF918F910F900BBE0F900FBE27
:1002D0000F901F9018951F920F920FB60F92112436
:1002E0002F938F939F938091060290910702880F1E
:1002F000991F9093070280930602809106029091C5
:100300000702039738F483E090E09093070280930C
:1003100006020DC080910602909107028115904857
:1003200031F481E090E89093070280930602809177
:1003300006029091070281BB80910602909107020C
:10034000909308019F918F912F910F900FBE0F9066
:100350001F90189510920A02E8E0F2E010821182D4
:10036000109207021092060280E0863038F4E82FDF
:10037000F0E0E050FE4F10828F5FF7CF84B18069CC
:1003800084B985B1806885B9A89599E288E10FB6EE
:10039000F894A895809360000FBE9093600084B19C
:1003A000806684B9E0E8F0E0808182608083A1E823
:1003B000B0E08C9188618C9380818068808380819B
:1003C000806280832FE33FE1309387002093860093
:1003D000109289001092880010928B0010928A006F
:1003E0008DB188608DB9C0E9D0E088818260888352
:1003F00041E950E0FA018081886180833093970061
:1004000020939600888180688883109299001092CA
:100410009800C2E7D0E08881816088831092A500AF
:100420001092A400C9E6D0E088818560888324E02A
:1004300031E0F9018081836080838FEF80BB8093FE
:10044000070121E031E0F90180818360808321E2AE
:1004500031E0F9018081886180838FE493EC90938F
:1004600027018093260123E730E0F9018081806233
:1004700080838881806288838C9181608C93FA016B
:10048000808181608083789484B1886084B98CB5E0
:1004900081648CBD85B18F7785B985B1806185B95F
:1004A000A8958091080281110AC0109289001092CB
:1004B0008800E2E0F1E080818C7F808373C08091CE
:1004C00008028536C8F1E2E0F1E080818D7F80830B
:1004D00080818160808310928B0010928A00C8E036
:1004E000D2E0A881B0E0A456B10920EA3FE0F1D201
:1004F0000F2EF4E6CF2ED12CE12CF12CF02DA701FC
:100500009601B6D22056304F309389002093880050
:100510008881A8ECB0E0A81BB10928E638E44FEFC9
:100520005FEFE7D2A7019601A3D22854344F30934E
:1005300027012093260136C0E2E0F1E080818D7F23
:10054000808380818160808310928900109288006E
:10055000C8E0D2E08881A4E6B0E0A81BB10920EA97
:100560003FE0B7D20F2EF4E6CF2ED12CE12CF12CA8
:10057000F02DA70196017CD22056304F30938B008E
:1005800020938A00A881B0E028E638E44FEF5FEFBF
:10059000A6D2A70196016CD22854344F309327017C
:1005A0002093260180910902811105C010929900C3
:1005B0001092980011C02091090230E0A0EABFE03B
:1005C00079D224E630E040E050E052D22156304F5C
:1005D0003093990020939800E5E0F1E080818160FC
:1005E00080832AE62A95F1F700C080818E7F808380
:1005F0008DB381608DBB81E080930A0280910A02F5
:100600008111FCCF8DB38E7F8DBBE5E0F1E0808161
:10061000826080838AE68A95F1F700C080818D7FB1
:1006200080838DB382608DBB81E080930A028091CC
:100630000A028111FCCF8DB38D7F8DBBE1E2F1E029
:100640008081836080838DB384608DBB85B18F7E14
:1006500085B9E0E0F2E0828120E0382F8381282B09
:10066000ABEABAEA27D296958795E8E0F2E0808374
:100670008081853618F084E680930802E8E0F2E095
:10068000908184E6891B80839FEFE3EDF0E3915036
:10069000E040F040E1F700C00000FFCE5058BB271B
:1006A000AA270ED048C139D130F03ED120F031F424
:1006B0009F3F11F41EF42EC10EF4E095E7FB24C118
:1006C000E92F4AD180F3BA176207730784079507A9
:1006D00018F071F49EF562C10EF4E0950B2EBA2F5E
:1006E000A02D0B01B90190010C01CA01A001112438
:1006F000FF27591B99F0593F50F4503E68F11A16E4
:10070000F040A22F232F342F4427585FF3CF469574
:1007100037952795A795F0405395C9F77EF41F1696
:10072000BA0B620B730B840BBAF09150A1F0FF0F60
:10073000BB1F661F771F881FC2F70EC0BA0F621F4C
:10074000731F841F48F4879577956795B795F7953C
:100750009E3F08F0B3CF9395880F08F09927EE0FCE
:100760009795879508950CD0E6C0DED040F0D5D09F
:1007700030F021F45F3F19F0C7C0511110C1CAC059
:10078000EBD098F39923C9F35523B1F3951B550B7F
:10079000BB27AA2762177307840738F09F5F5F4F54
:1007A000220F331F441FAA1FA9F333D00E2E3AF095
:1007B000E0E830D091505040E695001CCAF729D0AF
:1007C000FE2F27D0660F771F881FBB1F26173707FE
:1007D0004807AB07B0E809F0BB0B802DBF01FF272E
:1007E00093585F4F2AF09E3F510568F08DC0D7C0E7
:1007F0005F3FECF3983EDCF3869577956795B79568
:10080000F7959F5FC9F7880F911D9695879597F982
:100810000895E1E0660F771F881FBB1F62177307FB
:100820008407BA0720F0621B730B840BBA0BEE1F10
:1008300088F7E095089598D088F09F5790F0B92FE9
:100840009927B751A0F0D1F0660F771F881F991F25
:100850001AF0BA95C9F712C0B13081F09FD0B1E05B
:1008600008959CC0672F782F8827B85F39F0B93F6B
:10087000CCF3869577956795B395D9F73EF4909527
:100880008095709561957F4F8F4F9F4F0895E894A5
:1008900009C097FB3EF490958095709561957F4FC8
:1008A0008F4F9F4F9923A9F0F92F96E9BB27939576
:1008B000F695879577956795B795F111F8CFFAF486
:1008C000BB0F11F460FF1BC06F5F7F4F8F4F9F4FB7
:1008D00016C0882311F096E911C0772321F09EE815
:1008E000872F762F05C0662371F096E8862F70E07B
:1008F00060E02AF09A95660F771F881FDAF7880F55
:100900009695879597F9089597F99F6780E870E025
:1009100060E008959FEF80EC089500240A94161675
:10092000170618060906089500240A9412161306DD
:10093000140605060895092E0394000C11F488236B
:1009400052F0BB0F40F4BF2B11F460FF04C06F5F87
:100950007F4F8F4F9F4F089557FD9058440F551F5D
:1009600059F05F3F71F04795880F97FB991F61F031
:100970009F3F79F087950895121613061406551FA8
:10098000F2CF4695F1DF08C0161617061806991F14
:10099000F1CF86957105610508940895E894BB2709
:1009A00066277727CB0197F908950BD0C4CFB5DF21
:1009B00028F0BADF18F0952309F0A6CFABCF1124A9
:1009C000EECFCADFA0F3959FD1F3950F50E0551FEE
:1009D000629FF001729FBB27F00DB11D639FAA2794
:1009E000F00DB11DAA1F649F6627B00DA11D661FE3
:1009F000829F2227B00DA11D621F739FB00DA11D04
:100A0000621F839FA00D611D221F749F3327A00DBD
:100A1000611D231F849F600D211D822F762F6A2F59
:100A200011249F5750408AF0E1F088234AF0EE0FDE
:100A3000FF1FBB1F661F771F881F91505040A9F7EB
:100A40009E3F510570F060CFAACF5F3FECF3983E18
:100A5000DCF3869577956795B795F795E7959F5F52
:100A6000C1F7FE2B880F911D9695879597F90895EC
:100A7000A1E21A2EAA1BBB1BFD010DC0AA1FBB1FA2
:100A8000EE1FFF1FA217B307E407F50720F0A21B14
:100A9000B30BE40BF50B661F771F881F991F1A9481
:100AA00069F760957095809590959B01AC01BD01AB
:100AB000CF010895A29FB001B39FC001A39F700D05
:100AC000811D1124911DB29F700D811D1124911D56
:100AD0000895F0DFB7FF0895821B930B0895EADFB6
:100AE000A59F900DB49F900DA49F800D911D112482
:100AF0000895B7FFF4CFF3DF821B930B0895F894AA
:020B0000FFCF25
:00000001FF
