S01400004643436F6E74726F6C6C65722E7372656363
S113000071C00000AEC0000003C1000058C1000070
S113001088C0000086C0000084C0000082C00000C8
S113002080C000007EC000007CC000007AC00000D8
S113003078C0000076C0000074C0000072C00000E8
S113004070C000006EC000006CC000006AC00000F8
S113005068C0000066C0000064C0000062C0000008
S113006060C000005EC000005CC000005AC0000018
S113007058C0000056C0000054C0000052C0000028
S113008050C000004EC000004CC000004AC0000038
S113009048C0000046C0000044C0000042C0000048
S11300A040C000003EC000003CC000003AC0000058
S11300B038C0000037C000001BC1000032C000007F
S11300C030C000002EC000002CC000002AC0000078
S11300D028C0000026C0000024C0000022C0000088
S11300E020C0000011241FBECFEFD1E2DEBFCDBF80
S11300F000E00CBF12E0A0E0B2E0EAE1F1E100E0D0
S11301000BBF02C007900D92A433B107D9F722E0C8
S1130110A4E3B2E001C01D92AF33B207E1F727D1E7
S1130120FAC76ECF1F920F920FB60F9211240BB61F
S11301300F928F93EF93FF93E1EAF0E080818E7F3B
S113014080831092A5001092A40010923E02FF91A9
S1130150EF918F910F900BBE0F900FBE0F901F90D9
S113016018951F920F920FB60F9211240BB60F928F
S11301702F933F934F935F936F937F938F939F93AB
S1130180AF93BF93CF93DF93EF93FF93489B06C046
S1130190E1EAF0E080818160808325C0E1EAF0E05B
S11301A080818E7F8083C4EAD0E028813981A7E5ED
S11301B0B1E059D745D620E030E040E85DE3CED643
S11301C020E030E04AEF54E4A7D520E030E040E0FE
S11301D05FE33ED509D6E4E3F2E0708361831982DC
S11301E0188210923E02FF91EF91DF91CF91BF915F
S11301F0AF919F918F917F916F915F914F913F91BB
S11302002F910F900BBE0F900FBE0F901F9018955B
S11302101F920F920FB60F9211240BB60F922F93C9
S11302203F934F935F936F937F938F939F93AF937A
S1130230BF93CF93DF93EF93FF93499B06C0E1EA0B
S1130240F0E080818160808325C0E1EAF0E0808174
S11302508E7F8083C4EAD0E028813981A7E5B1E0AC
S113026002D7EED520E030E040E85DE377D620E029
S113027030E04AEF54E450D520E030E040E05FE362
S1130280E7D4B2D5E4E3F2E072836383198218827F
S113029010923E02FF91EF91DF91CF91BF91AF9108
S11302A09F918F917F916F915F914F913F912F918A
S11302B00F900BBE0F900FBE0F901F9018951F92BA
S11302C00F920FB60F9211240BB60F928F93EF93E8
S11302D0FF93E1E2F1E080818C7F8083FF91EF91D5
S11302E08F910F900BBE0F900FBE0F901F9018951B
S11302F01F920F920FB60F9211242F938F939F93F7
S113030080913A0290913B02880F991F90933B028F
S113031080933A0280913A0290913B02039738F419
S113032083E090E090933B0280933A020DC0809169
S11303303A0290913B028115904831F481E090E8B3
S113034090933B0280933A0280913A0290913B024F
S113035081BB80913A0290913B02909308019F9156
S11303608F912F910F900FBE0F901F901895CF93E0
S1130370DF93CDB7DEB761970FB6F894DEBF0FBE3B
S1130380CDBF10923E02ECE3F2E010821182109293
S11303903B0210923A0280E0863038F4E82FF0E015
S11303A0EC5CFD4F10828F5FF7CF84B1806984B914
S11303B085B1806885B9A89599E288E10FB6F8946B
S11303C0A895809360000FBE9093600084B180660E
S11303D084B9E0E8F0E0808182608083A1E8B0E045
S11303E08C9188618C938081806880838081806215
S11303F080834FE35FE1509387004093860010921F
S113040089001092880010928B0010928A008DB19E
S113041088608DB980E990E0FC012081226020830E
S113042061E970E0FB0120812861208350939700EB
S113043040939600FC01208120682083109299004B
S11304401092980022E730E0F90180818160808376
S11304501092A5001092A40089E690E0FC0120818E
S11304602560208344E051E0FA0120812360208349
S11304702FEF20BB2093070141E051E0FA012081D6
S11304802360208341E251E0FA0120812861208326
S11304902FE433EC309327012093260143E750E007
S11304A0FA01208120622083FC01208120622083C4
S11304B08C9181608C93FB0180818160808378942E
S11304C08DE0E6E2F2E0DE01119601900D928A954C
S11304D0E1F78DB182608DB91A82198280E8C82E45
S11304E08B8381E08C83A12CBA80DD24D394ED80AE
S11304F0FE800F81188529853A854B855C856D853D
S1130500CE010E9665D1CE010E96B0D2CE010E96D6
S113051040D341E060E072E0CE010E965BD384B13B
S1130520886084B98CB581648CBD85B18F7785B9B9
S113053085B1806185B9A89580913C02882324F413
S113054010913C02119502C010913C0280913C0232
S113055081110AC01092890010928800E2E0F1E053
S113056080818C7F808351C080913C021816ECF40A
S1130570E2E0F1E080818D7F8083808181608083EF
S113058010928B0010928A00212F30E0A0EABFE085
S11305906AD524E630E040E050E043D52056304FA1
S11305A030938900209388001CC0E2E0F1E0808150
S11305B08D7F808380818160808310928900109276
S11305C08800212F30E0A0EABFE04DD524E630E0DA
S11305D040E050E026D52056304F30938B002093D6
S11305E08A00A4E6B0E0A11BB10928E638E44FEF85
S11305F05FEF4ED524E630E040E050E012D52854B9
S1130600344F309327012093260180913D02181620
S11306102CF0109299001092980013C0A0913D0202
S11306200A2E000CBB0B20EA3FE02CD524E630E078
S113063040E050E0F6D42156304F30939900209397
S11306409800E5E0F1E08081816080832AE62A95C4
S1130650F1F700C080818E7F80838DB381608DBB74
S113066081E080933E0280913E028111FCCF8DB3E4
S11306708E7F8DBBE5E0F1E08081826080838AE635
S11306808A95F1F700C080818D7F80838DB382606D
S11306908DBB81E080933E0280913E028111FCCFAC
S11306A08DB38D7F8DBBE1E2F1E080818360808337
S11306B08DB384608DBB85B18F7E85B9E4E3F2E0B0
S11306C0008110E0102F00278181080F111DE280A6
S11306D0F12CFE2CEE248381E80EF11C40E065E150
S11306E072E0CE010E9676D240E0B801CE010E96AD
S11306F08BD240E06BE172E0CE010E966BD241E00A
S1130700B701CE010E9680D20D3291E0190710F098
S11307100CE211E00233110510F402E310E0063993
S11307201105C8F084E6809F9001819F300D11244B
S113073028593A4336952795A5E7BAED94D4002471
S1130740880F991F001C880F991F001C892F902D5A
S113075080933C0207C00639110520F482E3801B14
S113076080933C02EDE2EE16E1E0FE0630F00F2E3F
S1130770FCE2EF2EFF24F394F02DF2E3EF16F104E4
S113078028F40F2EF2E3EF2EF12CF02D84E68E9D4B
S113079090018F9D300D11242858334136952795AB
S11307A0A3E1B3E860D40024880F991F001C880FCC
S11307B0991F001C892F902D80933D022FEF83EC0D
S11307C099E0215080409040E1F700C00000B0CE95
S11307D0AF92BF92CF92DF92EF92FF920F931F934B
S11307E0CF93DF93CDB7DEB72D970FB6F894DEBF66
S11307F00FBECDBFFC01A982BA82CB82DC82ED821E
S1130800FE820F83188729873A874B875C876D8719
S113081009811A811183008352836383442379F00D
S11308202B813C81A0E2B3E01ED49B01AC0160E0CB
S113083074E284EF90E0F5D3215031090EC02B818E
S11308403C81A0E4B6E00FD49B01AC0160E074E20B
S113085084EF90E0E6D3215031090130110509F409
S113086047C01CF4012B51F0F0C00230110509F40B
S113087079C00330110509F4AFC0E7C03093C50057
S11308802093C4008B85882329F0E0ECF0E080817C
S113089082608083E2ECF0E060812D813E812370F0
S11308A03327A901440F551F29853A853327220F81
S11308B0331F220F331F220F331F8F8198859927EF
S11308C082959295907F9827807F9827242B822B5E
S11308D0862B8083E1ECF0E020818D819E81847001
S11308E09927880F991F880F991F822B8083ADC089
S11308F03093CD002093CC008B85882329F0E8EC3D
S1130900F0E0808182608083EAECF0E060812D81F8
S11309103E8123703327A901440F551F29853A8549
S11309203327220F331F220F331F220F331F8F81D0
S11309309885992782959295907F9827807F98270C
S1130940242B822B862B8083E9ECF0E020818D819F
S11309509E8184709927880F991F880F991F822B75
S1130960808373C03093D5002093D4008B85882373
S113097029F0E0EDF0E0808182608083EAECF0E031
S113098060812D813E8123703327A901440F551FB7
S113099029853A853327220F331F220F331F220F55
S11309A0331F8F819885992782959295907F9827F8
S11309B0807F9827242B822B862B8083E9ECF0E020
S11309C020818D819E8184709927880F991F880FBB
S11309D0991F822B808339C03093350120933401D1
S11309E08B85882329F0E0E3F1E0808182608083B5
S11309F0E2E3F1E060812D813E8123703327A90178
S1130A00440F551F29853A853327220F331F220FA0
S1130A10331F220F331F8F819885992782959295D2
S1130A20907F9827807F9827242B822B862B808386
S1130A30E1E3F1E020818D819E8184709927880F04
S1130A40991F880F991F822B80832D960FB6F894D7
S1130A50DEBF0FBECDBFDF91CF911F910F91FF90ED
S1130A60EF90DF90CF90BF90AF900895FC0120816C
S1130A70318121303105E1F01CF4232B41F008953C
S1130A802230310531F123303105A1F108958281FD
S1130A90882329F0A1ECB0E08C9180618C93838150
S1130AA08823C1F1E1ECF0E08081886080830895BF
S1130AB08281882329F0A9ECB0E08C9180618C9329
S1130AC08381882339F1E9ECF0E0808188608083B8
S1130AD008958281882329F0A1EDB0E08C91806192
S1130AE08C9383818823B1F0E1EDF0E0808188600C
S1130AF0808308958281882329F0A1E3B1E08C9159
S1130B0080618C938381882329F0E1E3F1E0808183
S1130B10886080830895CF93DF93EC0140E06AE01E
S1130B2007D040E06DE0CE0103D0DF91CF9108956E
S1130B30FC01208131812130310591F01CF4232BFB
S1130B4041F022C02230310591F023303105B1F05B
S1130B501BC09091C00095FFFCCF6093C60014C0E9
S1130B609091C80095FFFCCF6093CE000DC090918A
S1130B70D00095FFFCCF6093D60006C09091D000C2
S1130B8095FFFCCF6093D600442311F0CF01C3CF6F
S1130B900895CF93DF93EC0140E06BE1C9DF40E0BF
S1130BA06BE5CE01C5DF40E062E3CE01C1DF40E08A
S1130BB06AE4CE01BDDF40E06BE1CE01B9DF40E085
S1130BC06BE5CE01B5DF40E068E4CE01B1DFDF9133
S1130BD0CF910895FF920F931F93CF93DF938C01CE
S1130BE0EB01F42E6881662329F040E0C801A0DF00
S1130BF02196F8CFFF2011F0C8018DDFDF91CF914E
S1130C001F910F91FF900895FF920F931F93CF931D
S1130C10DF9300D000D0CDB7DEB78C01CB01F42E2A
S1130C204AE0BE016F5F7F4F43D24F2DBE016F5F1D
S1130C307F4FC801CFDF26960FB6F894DEBF0FBEF4
S1130C40CDBFDF91CF911F910F91FF900895505820
S1130C50BB27AA270ED048C139D130F03ED120F0AD
S1130C6031F49F3F11F41EF42EC10EF4E095E7FB1E
S1130C7024C1E92F4AD180F3BA17620773078407A6
S1130C80950718F071F49EF562C10EF4E0950B2EF1
S1130C90BA2FA02D0B01B90190010C01CA01A001CA
S1130CA01124FF27591B99F0593F50F4503E68F125
S1130CB01A16F040A22F232F342F4427585FF3CF66
S1130CC0469537952795A795F0405395C9F77EF437
S1130CD01F16BA0B620B730B840BBAF09150A1F080
S1130CE0FF0FBB1F661F771F881FC2F70EC0BA0F06
S1130CF0621F731F841F48F4879577956795B7958E
S1130D00F7959E3F08F0B3CF9395880F08F0992785
S1130D10EE0F9795879508950CD0E6C0DED040F08D
S1130D20D5D030F021F45F3F19F0C7C0511110C184
S1130D30CAC0EBD098F39923C9F35523B1F3951B9B
S1130D40550BBB27AA2762177307840738F09F5FE8
S1130D505F4F220F331F441FAA1FA9F333D00E2E57
S1130D603AF0E0E830D091505040E695001CCAF7C4
S1130D7029D0FE2F27D0660F771F881FBB1F261789
S1130D8037074807AB07B0E809F0BB0B802DBF015C
S1130D90FF2793585F4F2AF09E3F510568F08DC09E
S1130DA0D7C05F3FECF3983EDCF386957795679563
S1130DB0B795F7959F5FC9F7880F911D969587950D
S1130DC097F90895E1E0660F771F881FBB1F62172C
S1130DD073078407BA0720F0621B730B840BBA0BEA
S1130DE0EE1F88F7E095089598D088F09F5790F00B
S1130DF0B92F9927B751A0F0D1F0660F771F881F3C
S1130E00991F1AF0BA95C9F712C0B13081F09FD07A
S1130E10B1E008959CC0672F782F8827B85F39F018
S1130E20B93FCCF3869577956795B395D9F73EF49A
S1130E3090958095709561957F4F8F4F9F4F089542
S1130E40E89409C097FB3EF4909580957095619560
S1130E507F4F8F4F9F4F9923A9F0F92F96E9BB2716
S1130E609395F695879577956795B795F111F8CF92
S1130E70FAF4BB0F11F460FF1BC06F5F7F4F8F4FFD
S1130E809F4F16C0882311F096E911C0772321F0F3
S1130E909EE8872F762F05C0662371F096E8862F8B
S1130EA070E060E02AF09A95660F771F881FDAF7E2
S1130EB0880F9695879597F9089597F99F6780E825
S1130EC070E060E008959FEF80EC089500240A9498
S1130ED01616170618060906089500240A94121611
S1130EE01306140605060895092E0394000C11F444
S1130EF0882352F0BB0F40F4BF2B11F460FF04C0F1
S1130F006F5F7F4F8F4F9F4F089557FD9058440F49
S1130F10551F59F05F3F71F04795880F97FB991F54
S1130F2061F09F3F79F08795089512161306140611
S1130F30551FF2CF4695F1DF08C01616170618069E
S1130F40991FF1CF86957105610508940895E89479
S1130F50BB2766277727CB0197F908950BD0C4CF19
S1130F60B5DF28F0BADF18F0952309F0A6CFABCF90
S1130F701124EECFCADFA0F3959FD1F3950F50E073
S1130F80551F629FF001729FBB27F00DB11D639F37
S1130F90AA27F00DB11DAA1F649F6627B00DA11DDD
S1130FA0661F829F2227B00DA11D621F739FB00D83
S1130FB0A11D621F839FA00D611D221F749F3327F3
S1130FC0A00D611D231F849F600D211D822F762F8C
S1130FD06A2F11249F5750408AF0E1F088234AF089
S1130FE0EE0FFF1FBB1F661F771F881F91505040D5
S1130FF0A9F79E3F510570F060CFAACF5F3FECF395
S1131000983EDCF3869577956795B795F795E795C0
S11310109F5FC1F7FE2B880F911D9695879597F9D1
S11310200895A1E21A2EAA1BBB1BFD010DC0AA1F25
S1131030BB1FEE1FFF1FA217B307E407F50720F03D
S1131040A21BB30BE40BF50B661F771F881F991FB8
S11310501A9469F760957095809590959B01AC0101
S1131060BD01CF010895A29FB001B39FC001A39F0A
S1131070700D811D1124911DB29F700D811D1124CD
S1131080911D0895F0DFB7FF0895821B930B089517
S1131090B7FF04C003D0821B930B0895E4DFA59F20
S11310A0900DB49F900DA49F800D911D112408955F
S11310B0BB274A3031F4992322F4BDE290958195FF
S11310C09F4F01C0BB27FB015527AA27880F991FF3
S11310D0AA1FA41710F0A41B83955051B9F7A05D63
S11310E0AA3308F0A95DA193009779F7B111B193E0
S11310F01192CB0100C0DC01FC01672F71917723B1
S1131100E1F7329704C07C916D9370836291AE17BE
S10D1110BF07C8F30895F894FFCF59
S113111A537461727420646572204D657373756EBD
S113112A67656E000053313A2000002020202020F9
S113113A53323A200000000060000300000000005F
S107114A000101009B
S9030000FC
